{
  "_format": "hh-sol-artifact-1",
  "contractName": "Marketplace",
  "sourceName": "contracts/Marketplace.sol",
  "abi": [
    {
      "inputs": [
        {
          "internalType": "address",
          "name": "_nft",
          "type": "address"
        }
      ],
      "stateMutability": "nonpayable",
      "type": "constructor"
    },
    {
      "inputs": [
        {
          "internalType": "uint256",
          "name": "_tokenId",
          "type": "uint256"
        }
      ],
      "name": "buy",
      "outputs": [],
      "stateMutability": "payable",
      "type": "function"
    },
    {
      "inputs": [
        {
          "internalType": "uint256",
          "name": "",
          "type": "uint256"
        }
      ],
      "name": "cost",
      "outputs": [
        {
          "internalType": "uint256",
          "name": "",
          "type": "uint256"
        }
      ],
      "stateMutability": "view",
      "type": "function"
    },
    {
      "inputs": [
        {
          "internalType": "uint256",
          "name": "",
          "type": "uint256"
        }
      ],
      "name": "isListed",
      "outputs": [
        {
          "internalType": "bool",
          "name": "",
          "type": "bool"
        }
      ],
      "stateMutability": "view",
      "type": "function"
    },
    {
      "inputs": [
        {
          "internalType": "uint256",
          "name": "_tokenId",
          "type": "uint256"
        },
        {
          "internalType": "uint256",
          "name": "_cost",
          "type": "uint256"
        }
      ],
      "name": "list",
      "outputs": [],
      "stateMutability": "nonpayable",
      "type": "function"
    },
    {
      "inputs": [
        {
          "internalType": "uint256",
          "name": "",
          "type": "uint256"
        }
      ],
      "name": "lister",
      "outputs": [
        {
          "internalType": "address",
          "name": "",
          "type": "address"
        }
      ],
      "stateMutability": "view",
      "type": "function"
    },
    {
      "inputs": [],
      "name": "nft",
      "outputs": [
        {
          "internalType": "contract RoyaltyNFT",
          "name": "",
          "type": "address"
        }
      ],
      "stateMutability": "view",
      "type": "function"
    }
  ],
  "bytecode": "0x608060405234801561001057600080fd5b50604051610b02380380610b02833981810160405281019061003291906100db565b806000806101000a81548173ffffffffffffffffffffffffffffffffffffffff021916908373ffffffffffffffffffffffffffffffffffffffff16021790555050610108565b600080fd5b600073ffffffffffffffffffffffffffffffffffffffff82169050919050565b60006100a88261007d565b9050919050565b6100b88161009d565b81146100c357600080fd5b50565b6000815190506100d5816100af565b92915050565b6000602082840312156100f1576100f0610078565b5b60006100ff848285016100c6565b91505092915050565b6109eb806101176000396000f3fe6080604052600436106100555760003560e01c806347ccca021461005a57806350fd73671461008557806377da40ce146100ae5780639097548d146100eb578063d96a094a14610128578063fcce488314610144575b600080fd5b34801561006657600080fd5b5061006f610181565b60405161007c91906106cc565b60405180910390f35b34801561009157600080fd5b506100ac60048036038101906100a79190610722565b6101a5565b005b3480156100ba57600080fd5b506100d560048036038101906100d09190610762565b6102f8565b6040516100e291906107b0565b60405180910390f35b3480156100f757600080fd5b50610112600480360381019061010d9190610762565b61032b565b60405161011f91906107da565b60405180910390f35b610142600480360381019061013d9190610762565b610343565b005b34801561015057600080fd5b5061016b60048036038101906101669190610762565b61062d565b6040516101789190610810565b60405180910390f35b60008054906101000a900473ffffffffffffffffffffffffffffffffffffffff1681565b6001600083815260200190815260200160002060009054906101000a900460ff16156101d057600080fd5b60008054906101000a900473ffffffffffffffffffffffffffffffffffffffff1673ffffffffffffffffffffffffffffffffffffffff166323b872dd3330856040518463ffffffff1660e01b815260040161022d9392919061082b565b600060405180830381600087803b15801561024757600080fd5b505af115801561025b573d6000803e3d6000fd5b50505050336003600084815260200190815260200160002060006101000a81548173ffffffffffffffffffffffffffffffffffffffff021916908373ffffffffffffffffffffffffffffffffffffffff160217905550600180600084815260200190815260200160002060006101000a81548160ff0219169083151502179055508060026000848152602001908152602001600020819055505050565b60036020528060005260406000206000915054906101000a900473ffffffffffffffffffffffffffffffffffffffff1681565b60026020528060005260406000206000915090505481565b6001600082815260200190815260200160002060009054906101000a900460ff1661036d57600080fd5b600260008281526020019081526020016000205434101561038d57600080fd5b60006001600083815260200190815260200160002060006101000a81548160ff02191690831515021790555060008060008054906101000a900473ffffffffffffffffffffffffffffffffffffffff1673ffffffffffffffffffffffffffffffffffffffff16632a55205a8460026000878152602001908152602001600020546040518363ffffffff1660e01b815260040161042a929190610862565b6040805180830381865afa158015610446573d6000803e3d6000fd5b505050506040513d601f19601f8201168201806040525081019061046a91906108cc565b9150915060008273ffffffffffffffffffffffffffffffffffffffff16826040516104949061093d565b60006040518083038185875af1925050503d80600081146104d1576040519150601f19603f3d011682016040523d82523d6000602084013e6104d6565b606091505b50509050806104e457600080fd5b6003600085815260200190815260200160002060009054906101000a900473ffffffffffffffffffffffffffffffffffffffff1673ffffffffffffffffffffffffffffffffffffffff16823461053a9190610981565b6040516105469061093d565b60006040518083038185875af1925050503d8060008114610583576040519150601f19603f3d011682016040523d82523d6000602084013e610588565b606091505b5050809150508061059857600080fd5b60008054906101000a900473ffffffffffffffffffffffffffffffffffffffff1673ffffffffffffffffffffffffffffffffffffffff166323b872dd3033876040518463ffffffff1660e01b81526004016105f59392919061082b565b600060405180830381600087803b15801561060f57600080fd5b505af1158015610623573d6000803e3d6000fd5b5050505050505050565b60016020528060005260406000206000915054906101000a900460ff1681565b600073ffffffffffffffffffffffffffffffffffffffff82169050919050565b6000819050919050565b600061069261068d6106888461064d565b61066d565b61064d565b9050919050565b60006106a482610677565b9050919050565b60006106b682610699565b9050919050565b6106c6816106ab565b82525050565b60006020820190506106e160008301846106bd565b92915050565b600080fd5b6000819050919050565b6106ff816106ec565b811461070a57600080fd5b50565b60008135905061071c816106f6565b92915050565b60008060408385031215610739576107386106e7565b5b60006107478582860161070d565b92505060206107588582860161070d565b9150509250929050565b600060208284031215610778576107776106e7565b5b60006107868482850161070d565b91505092915050565b600061079a8261064d565b9050919050565b6107aa8161078f565b82525050565b60006020820190506107c560008301846107a1565b92915050565b6107d4816106ec565b82525050565b60006020820190506107ef60008301846107cb565b92915050565b60008115159050919050565b61080a816107f5565b82525050565b60006020820190506108256000830184610801565b92915050565b600060608201905061084060008301866107a1565b61084d60208301856107a1565b61085a60408301846107cb565b949350505050565b600060408201905061087760008301856107cb565b61088460208301846107cb565b9392505050565b6108948161078f565b811461089f57600080fd5b50565b6000815190506108b18161088b565b92915050565b6000815190506108c6816106f6565b92915050565b600080604083850312156108e3576108e26106e7565b5b60006108f1858286016108a2565b9250506020610902858286016108b7565b9150509250929050565b600081905092915050565b50565b600061092760008361090c565b915061093282610917565b600082019050919050565b60006109488261091a565b9150819050919050565b7f4e487b7100000000000000000000000000000000000000000000000000000000600052601160045260246000fd5b600061098c826106ec565b9150610997836106ec565b92508282039050818111156109af576109ae610952565b5b9291505056fea2646970667358221220ac5e4fef143637e5d6929892ba640aebbf72b124cf591e72cc49325b3cfd2a1064736f6c63430008120033",
  "linkReferences": {},
  "deployedLinkReferences": {}
}