{
  "_format": "hh-sol-artifact-1",
  "contractName": "RoyaltyNFT",
  "sourceName": "contracts/RoyaltyNFT.sol",
  "abi": [
    {
      "inputs": [
        {
          "internalType": "string",
          "name": "_name",
          "type": "string"
        },
        {
          "internalType": "string",
          "name": "_symbol",
          "type": "string"
        },
        {
          "internalType": "uint256",
          "name": "_cost",
          "type": "uint256"
        },
        {
          "internalType": "uint96",
          "name": "_royaltyFee",
          "type": "uint96"
        }
      ],
      "stateMutability": "nonpayable",
      "type": "constructor"
    },
    {
      "anonymous": false,
      "inputs": [
        {
          "indexed": true,
          "internalType": "address",
          "name": "owner",
          "type": "address"
        },
        {
          "indexed": true,
          "internalType": "address",
          "name": "approved",
          "type": "address"
        },
        {
          "indexed": true,
          "internalType": "uint256",
          "name": "tokenId",
          "type": "uint256"
        }
      ],
      "name": "Approval",
      "type": "event"
    },
    {
      "anonymous": false,
      "inputs": [
        {
          "indexed": true,
          "internalType": "address",
          "name": "owner",
          "type": "address"
        },
        {
          "indexed": true,
          "internalType": "address",
          "name": "operator",
          "type": "address"
        },
        {
          "indexed": false,
          "internalType": "bool",
          "name": "approved",
          "type": "bool"
        }
      ],
      "name": "ApprovalForAll",
      "type": "event"
    },
    {
      "anonymous": false,
      "inputs": [
        {
          "indexed": true,
          "internalType": "address",
          "name": "previousOwner",
          "type": "address"
        },
        {
          "indexed": true,
          "internalType": "address",
          "name": "newOwner",
          "type": "address"
        }
      ],
      "name": "OwnershipTransferred",
      "type": "event"
    },
    {
      "anonymous": false,
      "inputs": [
        {
          "indexed": true,
          "internalType": "address",
          "name": "from",
          "type": "address"
        },
        {
          "indexed": true,
          "internalType": "address",
          "name": "to",
          "type": "address"
        },
        {
          "indexed": true,
          "internalType": "uint256",
          "name": "tokenId",
          "type": "uint256"
        }
      ],
      "name": "Transfer",
      "type": "event"
    },
    {
      "inputs": [
        {
          "internalType": "address",
          "name": "to",
          "type": "address"
        },
        {
          "internalType": "uint256",
          "name": "tokenId",
          "type": "uint256"
        }
      ],
      "name": "approve",
      "outputs": [],
      "stateMutability": "nonpayable",
      "type": "function"
    },
    {
      "inputs": [],
      "name": "artist",
      "outputs": [
        {
          "internalType": "address",
          "name": "",
          "type": "address"
        }
      ],
      "stateMutability": "view",
      "type": "function"
    },
    {
      "inputs": [
        {
          "internalType": "address",
          "name": "owner",
          "type": "address"
        }
      ],
      "name": "balanceOf",
      "outputs": [
        {
          "internalType": "uint256",
          "name": "",
          "type": "uint256"
        }
      ],
      "stateMutability": "view",
      "type": "function"
    },
    {
      "inputs": [
        {
          "internalType": "uint256",
          "name": "tokenId",
          "type": "uint256"
        }
      ],
      "name": "burnNFT",
      "outputs": [],
      "stateMutability": "nonpayable",
      "type": "function"
    },
    {
      "inputs": [],
      "name": "cost",
      "outputs": [
        {
          "internalType": "uint256",
          "name": "",
          "type": "uint256"
        }
      ],
      "stateMutability": "view",
      "type": "function"
    },
    {
      "inputs": [],
      "name": "getAllNFTs",
      "outputs": [
        {
          "components": [
            {
              "internalType": "uint256",
              "name": "id",
              "type": "uint256"
            },
            {
              "internalType": "address",
              "name": "owner",
              "type": "address"
            },
            {
              "internalType": "uint256",
              "name": "cost",
              "type": "uint256"
            },
            {
              "internalType": "string",
              "name": "title",
              "type": "string"
            },
            {
              "internalType": "string",
              "name": "description",
              "type": "string"
            },
            {
              "internalType": "string",
              "name": "metadataURI",
              "type": "string"
            },
            {
              "internalType": "uint256",
              "name": "timestamp",
              "type": "uint256"
            }
          ],
          "internalType": "struct RoyaltyNFT.TransactionStruct[]",
          "name": "",
          "type": "tuple[]"
        }
      ],
      "stateMutability": "view",
      "type": "function"
    },
    {
      "inputs": [
        {
          "internalType": "uint256",
          "name": "tokenId",
          "type": "uint256"
        }
      ],
      "name": "getApproved",
      "outputs": [
        {
          "internalType": "address",
          "name": "",
          "type": "address"
        }
      ],
      "stateMutability": "view",
      "type": "function"
    },
    {
      "inputs": [
        {
          "internalType": "address",
          "name": "owner",
          "type": "address"
        },
        {
          "internalType": "address",
          "name": "operator",
          "type": "address"
        }
      ],
      "name": "isApprovedForAll",
      "outputs": [
        {
          "internalType": "bool",
          "name": "",
          "type": "bool"
        }
      ],
      "stateMutability": "view",
      "type": "function"
    },
    {
      "inputs": [
        {
          "internalType": "address",
          "name": "recipient",
          "type": "address"
        },
        {
          "internalType": "string",
          "name": "tokenURI",
          "type": "string"
        },
        {
          "internalType": "string",
          "name": "title",
          "type": "string"
        },
        {
          "internalType": "string",
          "name": "description",
          "type": "string"
        }
      ],
      "name": "mintNFT",
      "outputs": [
        {
          "internalType": "uint256",
          "name": "",
          "type": "uint256"
        }
      ],
      "stateMutability": "nonpayable",
      "type": "function"
    },
    {
      "inputs": [
        {
          "internalType": "address",
          "name": "recipient",
          "type": "address"
        },
        {
          "internalType": "string",
          "name": "tokenURI",
          "type": "string"
        },
        {
          "internalType": "address",
          "name": "royaltyReceiver",
          "type": "address"
        },
        {
          "internalType": "uint96",
          "name": "feeNumerator",
          "type": "uint96"
        },
        {
          "internalType": "string",
          "name": "title",
          "type": "string"
        },
        {
          "internalType": "string",
          "name": "description",
          "type": "string"
        }
      ],
      "name": "mintNFTWithRoyalty",
      "outputs": [
        {
          "internalType": "uint256",
          "name": "",
          "type": "uint256"
        }
      ],
      "stateMutability": "payable",
      "type": "function"
    },
    {
      "inputs": [],
      "name": "name",
      "outputs": [
        {
          "internalType": "string",
          "name": "",
          "type": "string"
        }
      ],
      "stateMutability": "view",
      "type": "function"
    },
    {
      "inputs": [],
      "name": "owner",
      "outputs": [
        {
          "internalType": "address",
          "name": "",
          "type": "address"
        }
      ],
      "stateMutability": "view",
      "type": "function"
    },
    {
      "inputs": [
        {
          "internalType": "uint256",
          "name": "tokenId",
          "type": "uint256"
        }
      ],
      "name": "ownerOf",
      "outputs": [
        {
          "internalType": "address",
          "name": "",
          "type": "address"
        }
      ],
      "stateMutability": "view",
      "type": "function"
    },
    {
      "inputs": [],
      "name": "renounceOwnership",
      "outputs": [],
      "stateMutability": "nonpayable",
      "type": "function"
    },
    {
      "inputs": [],
      "name": "royaltyFee",
      "outputs": [
        {
          "internalType": "uint96",
          "name": "",
          "type": "uint96"
        }
      ],
      "stateMutability": "view",
      "type": "function"
    },
    {
      "inputs": [
        {
          "internalType": "uint256",
          "name": "_tokenId",
          "type": "uint256"
        },
        {
          "internalType": "uint256",
          "name": "_salePrice",
          "type": "uint256"
        }
      ],
      "name": "royaltyInfo",
      "outputs": [
        {
          "internalType": "address",
          "name": "",
          "type": "address"
        },
        {
          "internalType": "uint256",
          "name": "",
          "type": "uint256"
        }
      ],
      "stateMutability": "view",
      "type": "function"
    },
    {
      "inputs": [
        {
          "internalType": "address",
          "name": "from",
          "type": "address"
        },
        {
          "internalType": "address",
          "name": "to",
          "type": "address"
        },
        {
          "internalType": "uint256",
          "name": "tokenId",
          "type": "uint256"
        }
      ],
      "name": "safeTransferFrom",
      "outputs": [],
      "stateMutability": "nonpayable",
      "type": "function"
    },
    {
      "inputs": [
        {
          "internalType": "address",
          "name": "from",
          "type": "address"
        },
        {
          "internalType": "address",
          "name": "to",
          "type": "address"
        },
        {
          "internalType": "uint256",
          "name": "tokenId",
          "type": "uint256"
        },
        {
          "internalType": "bytes",
          "name": "data",
          "type": "bytes"
        }
      ],
      "name": "safeTransferFrom",
      "outputs": [],
      "stateMutability": "nonpayable",
      "type": "function"
    },
    {
      "inputs": [
        {
          "internalType": "address",
          "name": "operator",
          "type": "address"
        },
        {
          "internalType": "bool",
          "name": "approved",
          "type": "bool"
        }
      ],
      "name": "setApprovalForAll",
      "outputs": [],
      "stateMutability": "nonpayable",
      "type": "function"
    },
    {
      "inputs": [
        {
          "internalType": "bytes4",
          "name": "interfaceId",
          "type": "bytes4"
        }
      ],
      "name": "supportsInterface",
      "outputs": [
        {
          "internalType": "bool",
          "name": "",
          "type": "bool"
        }
      ],
      "stateMutability": "view",
      "type": "function"
    },
    {
      "inputs": [],
      "name": "symbol",
      "outputs": [
        {
          "internalType": "string",
          "name": "",
          "type": "string"
        }
      ],
      "stateMutability": "view",
      "type": "function"
    },
    {
      "inputs": [
        {
          "internalType": "uint256",
          "name": "tokenId",
          "type": "uint256"
        }
      ],
      "name": "tokenURI",
      "outputs": [
        {
          "internalType": "string",
          "name": "",
          "type": "string"
        }
      ],
      "stateMutability": "view",
      "type": "function"
    },
    {
      "inputs": [],
      "name": "totalSupply",
      "outputs": [
        {
          "internalType": "uint256",
          "name": "",
          "type": "uint256"
        }
      ],
      "stateMutability": "view",
      "type": "function"
    },
    {
      "inputs": [
        {
          "internalType": "address",
          "name": "from",
          "type": "address"
        },
        {
          "internalType": "address",
          "name": "to",
          "type": "address"
        },
        {
          "internalType": "uint256",
          "name": "tokenId",
          "type": "uint256"
        }
      ],
      "name": "transferFrom",
      "outputs": [],
      "stateMutability": "nonpayable",
      "type": "function"
    },
    {
      "inputs": [
        {
          "internalType": "address",
          "name": "newOwner",
          "type": "address"
        }
      ],
      "name": "transferOwnership",
      "outputs": [],
      "stateMutability": "nonpayable",
      "type": "function"
    }
  ],
  "bytecode": "0x60806040523480156200001157600080fd5b5060405162004ec638038062004ec6833981810160405281019062000037919062000597565b838381600090816200004a919062000888565b5080600190816200005c919062000888565b5050506200007f620000736200010560201b60201c565b6200010d60201b60201c565b81600d8190555033600c60006101000a81548173ffffffffffffffffffffffffffffffffffffffff021916908373ffffffffffffffffffffffffffffffffffffffff160217905550620000fb600c60009054906101000a900473ffffffffffffffffffffffffffffffffffffffff1682620001d360201b60201c565b5050505062000a8a565b600033905090565b6000600960009054906101000a900473ffffffffffffffffffffffffffffffffffffffff16905081600960006101000a81548173ffffffffffffffffffffffffffffffffffffffff021916908373ffffffffffffffffffffffffffffffffffffffff1602179055508173ffffffffffffffffffffffffffffffffffffffff168173ffffffffffffffffffffffffffffffffffffffff167f8be0079c531659141344cd1fd0a4f28419497f9722a3daafe3b4186f6b6457e060405160405180910390a35050565b620001e36200037660201b60201c565b6bffffffffffffffffffffffff16816bffffffffffffffffffffffff16111562000244576040517f08c379a00000000000000000000000000000000000000000000000000000000081526004016200023b90620009f6565b60405180910390fd5b600073ffffffffffffffffffffffffffffffffffffffff168273ffffffffffffffffffffffffffffffffffffffff1603620002b6576040517f08c379a0000000000000000000000000000000000000000000000000000000008152600401620002ad9062000a68565b60405180910390fd5b60405180604001604052808373ffffffffffffffffffffffffffffffffffffffff168152602001826bffffffffffffffffffffffff16815250600760008201518160000160006101000a81548173ffffffffffffffffffffffffffffffffffffffff021916908373ffffffffffffffffffffffffffffffffffffffff16021790555060208201518160000160146101000a8154816bffffffffffffffffffffffff02191690836bffffffffffffffffffffffff1602179055509050505050565b6000612710905090565b6000604051905090565b600080fd5b600080fd5b600080fd5b600080fd5b6000601f19601f8301169050919050565b7f4e487b7100000000000000000000000000000000000000000000000000000000600052604160045260246000fd5b620003e9826200039e565b810181811067ffffffffffffffff821117156200040b576200040a620003af565b5b80604052505050565b60006200042062000380565b90506200042e8282620003de565b919050565b600067ffffffffffffffff821115620004515762000450620003af565b5b6200045c826200039e565b9050602081019050919050565b60005b83811015620004895780820151818401526020810190506200046c565b60008484015250505050565b6000620004ac620004a68462000433565b62000414565b905082815260208101848484011115620004cb57620004ca62000399565b5b620004d884828562000469565b509392505050565b600082601f830112620004f857620004f762000394565b5b81516200050a84826020860162000495565b91505092915050565b6000819050919050565b620005288162000513565b81146200053457600080fd5b50565b60008151905062000548816200051d565b92915050565b60006bffffffffffffffffffffffff82169050919050565b62000571816200054e565b81146200057d57600080fd5b50565b600081519050620005918162000566565b92915050565b60008060008060808587031215620005b457620005b36200038a565b5b600085015167ffffffffffffffff811115620005d557620005d46200038f565b5b620005e387828801620004e0565b945050602085015167ffffffffffffffff8111156200060757620006066200038f565b5b6200061587828801620004e0565b9350506040620006288782880162000537565b92505060606200063b8782880162000580565b91505092959194509250565b600081519050919050565b7f4e487b7100000000000000000000000000000000000000000000000000000000600052602260045260246000fd5b600060028204905060018216806200069a57607f821691505b602082108103620006b057620006af62000652565b5b50919050565b60008190508160005260206000209050919050565b60006020601f8301049050919050565b600082821b905092915050565b6000600883026200071a7fffffffffffffffffffffffffffffffffffffffffffffffffffffffffffffffff82620006db565b620007268683620006db565b95508019841693508086168417925050509392505050565b6000819050919050565b600062000769620007636200075d8462000513565b6200073e565b62000513565b9050919050565b6000819050919050565b620007858362000748565b6200079d620007948262000770565b848454620006e8565b825550505050565b600090565b620007b4620007a5565b620007c18184846200077a565b505050565b5b81811015620007e957620007dd600082620007aa565b600181019050620007c7565b5050565b601f82111562000838576200080281620006b6565b6200080d84620006cb565b810160208510156200081d578190505b620008356200082c85620006cb565b830182620007c6565b50505b505050565b600082821c905092915050565b60006200085d600019846008026200083d565b1980831691505092915050565b60006200087883836200084a565b9150826002028217905092915050565b620008938262000647565b67ffffffffffffffff811115620008af57620008ae620003af565b5b620008bb825462000681565b620008c8828285620007ed565b600060209050601f831160018114620009005760008415620008eb578287015190505b620008f785826200086a565b86555062000967565b601f1984166200091086620006b6565b60005b828110156200093a5784890151825560018201915060208501945060208101905062000913565b868310156200095a578489015162000956601f8916826200084a565b8355505b6001600288020188555050505b505050505050565b600082825260208201905092915050565b7f455243323938313a20726f79616c7479206665652077696c6c2065786365656460008201527f2073616c65507269636500000000000000000000000000000000000000000000602082015250565b6000620009de602a836200096f565b9150620009eb8262000980565b604082019050919050565b6000602082019050818103600083015262000a1181620009cf565b9050919050565b7f455243323938313a20696e76616c696420726563656976657200000000000000600082015250565b600062000a506019836200096f565b915062000a5d8262000a18565b602082019050919050565b6000602082019050818103600083015262000a838162000a41565b9050919050565b61442c8062000a9a6000396000f3fe6080604052600436106101665760003560e01c806370a08231116100d1578063b88d4fde1161008a578063d5d7ce1211610064578063d5d7ce1214610551578063e0391b0914610581578063e985e9c5146105ac578063f2fde38b146105e957610166565b8063b88d4fde146104c0578063b8997a97146104e9578063c87b56dd1461051457610166565b806370a08231146103b0578063715018a6146103ed5780637791d3f3146104045780638da5cb5b1461044157806395d89b411461046c578063a22cb4651461049757610166565b806323b872dd1161012357806323b872dd1461028f5780632890e0d7146102b85780632a55205a146102e157806342842e0e1461031f57806343bc1612146103485780636352211e1461037357610166565b806301ffc9a71461016b57806306fdde03146101a8578063081812fc146101d3578063095ea7b31461021057806313faede61461023957806318160ddd14610264575b600080fd5b34801561017757600080fd5b50610192600480360381019061018d9190612b85565b610612565b60405161019f9190612bcd565b60405180910390f35b3480156101b457600080fd5b506101bd610624565b6040516101ca9190612c78565b60405180910390f35b3480156101df57600080fd5b506101fa60048036038101906101f59190612cd0565b6106b6565b6040516102079190612d3e565b60405180910390f35b34801561021c57600080fd5b5061023760048036038101906102329190612d85565b6106fc565b005b34801561024557600080fd5b5061024e610813565b60405161025b9190612dd4565b60405180910390f35b34801561027057600080fd5b50610279610819565b6040516102869190612dd4565b60405180910390f35b34801561029b57600080fd5b506102b660048036038101906102b19190612def565b61082a565b005b3480156102c457600080fd5b506102df60048036038101906102da9190612cd0565b61088a565b005b3480156102ed57600080fd5b5061030860048036038101906103039190612e42565b61089e565b604051610316929190612e82565b60405180910390f35b34801561032b57600080fd5b5061034660048036038101906103419190612def565b610a88565b005b34801561035457600080fd5b5061035d610aa8565b60405161036a9190612d3e565b60405180910390f35b34801561037f57600080fd5b5061039a60048036038101906103959190612cd0565b610ace565b6040516103a79190612d3e565b60405180910390f35b3480156103bc57600080fd5b506103d760048036038101906103d29190612eab565b610b54565b6040516103e49190612dd4565b60405180910390f35b3480156103f957600080fd5b50610402610c0b565b005b34801561041057600080fd5b5061042b6004803603810190610426919061300d565b610c1f565b6040516104389190612dd4565b60405180910390f35b34801561044d57600080fd5b50610456610e29565b6040516104639190612d3e565b60405180910390f35b34801561047857600080fd5b50610481610e53565b60405161048e9190612c78565b60405180910390f35b3480156104a357600080fd5b506104be60048036038101906104b991906130f4565b610ee5565b005b3480156104cc57600080fd5b506104e760048036038101906104e291906131d5565b610efb565b005b3480156104f557600080fd5b506104fe610f5d565b60405161050b919061327f565b60405180910390f35b34801561052057600080fd5b5061053b60048036038101906105369190612cd0565b610f7b565b6040516105489190612c78565b60405180910390f35b61056b600480360381019061056691906132c6565b61108d565b6040516105789190612dd4565b60405180910390f35b34801561058d57600080fd5b506105966110cf565b6040516105a3919061357b565b60405180910390f35b3480156105b857600080fd5b506105d360048036038101906105ce919061359d565b611358565b6040516105e09190612bcd565b60405180910390f35b3480156105f557600080fd5b50610610600480360381019061060b9190612eab565b6113ec565b005b600061061d8261146f565b9050919050565b6060600080546106339061360c565b80601f016020809104026020016040519081016040528092919081815260200182805461065f9061360c565b80156106ac5780601f10610681576101008083540402835291602001916106ac565b820191906000526020600020905b81548152906001019060200180831161068f57829003601f168201915b5050505050905090565b60006106c1826114e9565b6004600083815260200190815260200160002060009054906101000a900473ffffffffffffffffffffffffffffffffffffffff169050919050565b600061070782610ace565b90508073ffffffffffffffffffffffffffffffffffffffff168373ffffffffffffffffffffffffffffffffffffffff1603610777576040517f08c379a000000000000000000000000000000000000000000000000000000000815260040161076e906136af565b60405180910390fd5b8073ffffffffffffffffffffffffffffffffffffffff16610796611534565b73ffffffffffffffffffffffffffffffffffffffff1614806107c557506107c4816107bf611534565b611358565b5b610804576040517f08c379a00000000000000000000000000000000000000000000000000000000081526004016107fb90613741565b60405180910390fd5b61080e838361153c565b505050565b600d5481565b6000610825600a6115f5565b905090565b61083b610835611534565b82611603565b61087a576040517f08c379a0000000000000000000000000000000000000000000000000000000008152600401610871906137d3565b60405180910390fd5b610885838383611698565b505050565b610892611991565b61089b81611a0f565b50565b6000806000600860008681526020019081526020016000206040518060400160405290816000820160009054906101000a900473ffffffffffffffffffffffffffffffffffffffff1673ffffffffffffffffffffffffffffffffffffffff1673ffffffffffffffffffffffffffffffffffffffff1681526020016000820160149054906101000a90046bffffffffffffffffffffffff166bffffffffffffffffffffffff166bffffffffffffffffffffffff16815250509050600073ffffffffffffffffffffffffffffffffffffffff16816000015173ffffffffffffffffffffffffffffffffffffffff1603610a335760076040518060400160405290816000820160009054906101000a900473ffffffffffffffffffffffffffffffffffffffff1673ffffffffffffffffffffffffffffffffffffffff1673ffffffffffffffffffffffffffffffffffffffff1681526020016000820160149054906101000a90046bffffffffffffffffffffffff166bffffffffffffffffffffffff166bffffffffffffffffffffffff168152505090505b6000610a3d611a24565b6bffffffffffffffffffffffff1682602001516bffffffffffffffffffffffff1686610a699190613822565b610a739190613893565b90508160000151819350935050509250929050565b610aa383838360405180602001604052806000815250610efb565b505050565b600c60009054906101000a900473ffffffffffffffffffffffffffffffffffffffff1681565b600080610ada83611a2e565b9050600073ffffffffffffffffffffffffffffffffffffffff168173ffffffffffffffffffffffffffffffffffffffff1603610b4b576040517f08c379a0000000000000000000000000000000000000000000000000000000008152600401610b4290613910565b60405180910390fd5b80915050919050565b60008073ffffffffffffffffffffffffffffffffffffffff168273ffffffffffffffffffffffffffffffffffffffff1603610bc4576040517f08c379a0000000000000000000000000000000000000000000000000000000008152600401610bbb906139a2565b60405180910390fd5b600360008373ffffffffffffffffffffffffffffffffffffffff1673ffffffffffffffffffffffffffffffffffffffff168152602001908152602001600020549050919050565b610c13611991565b610c1d6000611a6b565b565b6000610c29611991565b6000600b85604051610c3b91906139fe565b908152602001604051809103902060009054906101000a900460ff1660ff1614610c9a576040517f08c379a0000000000000000000000000000000000000000000000000000000008152600401610c9190613a61565b60405180910390fd5b610ca4600a611b31565b6000610cb0600a6115f5565b9050610cbc8682611b47565b610cc68186611b65565b600e6040518060e001604052808381526020013373ffffffffffffffffffffffffffffffffffffffff168152602001600d5481526020018681526020018581526020018781526020014281525090806001815401808255809150506001900390600052602060002090600702016000909190919091506000820151816000015560208201518160010160006101000a81548173ffffffffffffffffffffffffffffffffffffffff021916908373ffffffffffffffffffffffffffffffffffffffff160217905550604082015181600201556060820151816003019081610dac9190613c2d565b506080820151816004019081610dc29190613c2d565b5060a0820151816005019081610dd89190613c2d565b5060c0820151816006015550506001600b86604051610df791906139fe565b908152602001604051809103902060006101000a81548160ff021916908360ff16021790555080915050949350505050565b6000600960009054906101000a900473ffffffffffffffffffffffffffffffffffffffff16905090565b606060018054610e629061360c565b80601f0160208091040260200160405190810160405280929190818152602001828054610e8e9061360c565b8015610edb5780601f10610eb057610100808354040283529160200191610edb565b820191906000526020600020905b815481529060010190602001808311610ebe57829003601f168201915b5050505050905090565b610ef7610ef0611534565b8383611bd2565b5050565b610f0c610f06611534565b83611603565b610f4b576040517f08c379a0000000000000000000000000000000000000000000000000000000008152600401610f42906137d3565b60405180910390fd5b610f5784848484611d3e565b50505050565b600c60149054906101000a90046bffffffffffffffffffffffff1681565b6060610f86826114e9565b6000600660008481526020019081526020016000208054610fa69061360c565b80601f0160208091040260200160405190810160405280929190818152602001828054610fd29061360c565b801561101f5780601f10610ff45761010080835404028352916020019161101f565b820191906000526020600020905b81548152906001019060200180831161100257829003601f168201915b505050505090506000611030611d9a565b90506000815103611045578192505050611088565b60008251111561107a578082604051602001611062929190613cff565b60405160208183030381529060405292505050611088565b61108384611db1565b925050505b919050565b6000611097611991565b600d543410156110a657600080fd5b60006110b488888686610c1f565b90506110c1818787611e19565b809150509695505050505050565b6060600e805480602002602001604051908101604052809291908181526020016000905b8282101561134f57838290600052602060002090600702016040518060e0016040529081600082015481526020016001820160009054906101000a900473ffffffffffffffffffffffffffffffffffffffff1673ffffffffffffffffffffffffffffffffffffffff1673ffffffffffffffffffffffffffffffffffffffff168152602001600282015481526020016003820180546111909061360c565b80601f01602080910402602001604051908101604052809291908181526020018280546111bc9061360c565b80156112095780601f106111de57610100808354040283529160200191611209565b820191906000526020600020905b8154815290600101906020018083116111ec57829003601f168201915b505050505081526020016004820180546112229061360c565b80601f016020809104026020016040519081016040528092919081815260200182805461124e9061360c565b801561129b5780601f106112705761010080835404028352916020019161129b565b820191906000526020600020905b81548152906001019060200180831161127e57829003601f168201915b505050505081526020016005820180546112b49061360c565b80601f01602080910402602001604051908101604052809291908181526020018280546112e09061360c565b801561132d5780601f106113025761010080835404028352916020019161132d565b820191906000526020600020905b81548152906001019060200180831161131057829003601f168201915b50505050508152602001600682015481525050815260200190600101906110f3565b50505050905090565b6000600560008473ffffffffffffffffffffffffffffffffffffffff1673ffffffffffffffffffffffffffffffffffffffff16815260200190815260200160002060008373ffffffffffffffffffffffffffffffffffffffff1673ffffffffffffffffffffffffffffffffffffffff16815260200190815260200160002060009054906101000a900460ff16905092915050565b6113f4611991565b600073ffffffffffffffffffffffffffffffffffffffff168173ffffffffffffffffffffffffffffffffffffffff1603611463576040517f08c379a000000000000000000000000000000000000000000000000000000000815260040161145a90613d95565b60405180910390fd5b61146c81611a6b565b50565b60007f2a55205a000000000000000000000000000000000000000000000000000000007bffffffffffffffffffffffffffffffffffffffffffffffffffffffff1916827bffffffffffffffffffffffffffffffffffffffffffffffffffffffff191614806114e257506114e182611fc0565b5b9050919050565b6114f2816120a2565b611531576040517f08c379a000000000000000000000000000000000000000000000000000000000815260040161152890613910565b60405180910390fd5b50565b600033905090565b816004600083815260200190815260200160002060006101000a81548173ffffffffffffffffffffffffffffffffffffffff021916908373ffffffffffffffffffffffffffffffffffffffff160217905550808273ffffffffffffffffffffffffffffffffffffffff166115af83610ace565b73ffffffffffffffffffffffffffffffffffffffff167f8c5be1e5ebec7d5bd14f71427d1e84f3dd0314c0f7b2291e5b200ac8c7c3b92560405160405180910390a45050565b600081600001549050919050565b60008061160f83610ace565b90508073ffffffffffffffffffffffffffffffffffffffff168473ffffffffffffffffffffffffffffffffffffffff16148061165157506116508185611358565b5b8061168f57508373ffffffffffffffffffffffffffffffffffffffff16611677846106b6565b73ffffffffffffffffffffffffffffffffffffffff16145b91505092915050565b8273ffffffffffffffffffffffffffffffffffffffff166116b882610ace565b73ffffffffffffffffffffffffffffffffffffffff161461170e576040517f08c379a000000000000000000000000000000000000000000000000000000000815260040161170590613e27565b60405180910390fd5b600073ffffffffffffffffffffffffffffffffffffffff168273ffffffffffffffffffffffffffffffffffffffff160361177d576040517f08c379a000000000000000000000000000000000000000000000000000000000815260040161177490613eb9565b60405180910390fd5b61178a83838360016120e3565b8273ffffffffffffffffffffffffffffffffffffffff166117aa82610ace565b73ffffffffffffffffffffffffffffffffffffffff1614611800576040517f08c379a00000000000000000000000000000000000000000000000000000000081526004016117f790613e27565b60405180910390fd5b6004600082815260200190815260200160002060006101000a81549073ffffffffffffffffffffffffffffffffffffffff02191690556001600360008573ffffffffffffffffffffffffffffffffffffffff1673ffffffffffffffffffffffffffffffffffffffff168152602001908152602001600020600082825403925050819055506001600360008473ffffffffffffffffffffffffffffffffffffffff1673ffffffffffffffffffffffffffffffffffffffff16815260200190815260200160002060008282540192505081905550816002600083815260200190815260200160002060006101000a81548173ffffffffffffffffffffffffffffffffffffffff021916908373ffffffffffffffffffffffffffffffffffffffff160217905550808273ffffffffffffffffffffffffffffffffffffffff168473ffffffffffffffffffffffffffffffffffffffff167fddf252ad1be2c89b69c2b068fc378daa952ba7f163c4a11628f55a4df523b3ef60405160405180910390a461198c8383836001612209565b505050565b611999611534565b73ffffffffffffffffffffffffffffffffffffffff166119b7610e29565b73ffffffffffffffffffffffffffffffffffffffff1614611a0d576040517f08c379a0000000000000000000000000000000000000000000000000000000008152600401611a0490613f25565b60405180910390fd5b565b611a188161220f565b611a2181612262565b50565b6000612710905090565b60006002600083815260200190815260200160002060009054906101000a900473ffffffffffffffffffffffffffffffffffffffff169050919050565b6000600960009054906101000a900473ffffffffffffffffffffffffffffffffffffffff16905081600960006101000a81548173ffffffffffffffffffffffffffffffffffffffff021916908373ffffffffffffffffffffffffffffffffffffffff1602179055508173ffffffffffffffffffffffffffffffffffffffff168173ffffffffffffffffffffffffffffffffffffffff167f8be0079c531659141344cd1fd0a4f28419497f9722a3daafe3b4186f6b6457e060405160405180910390a35050565b6001816000016000828254019250508190555050565b611b618282604051806020016040528060008152506122c1565b5050565b611b6e826120a2565b611bad576040517f08c379a0000000000000000000000000000000000000000000000000000000008152600401611ba490613fb7565b60405180910390fd5b80600660008481526020019081526020016000209081611bcd9190613c2d565b505050565b8173ffffffffffffffffffffffffffffffffffffffff168373ffffffffffffffffffffffffffffffffffffffff1603611c40576040517f08c379a0000000000000000000000000000000000000000000000000000000008152600401611c3790614023565b60405180910390fd5b80600560008573ffffffffffffffffffffffffffffffffffffffff1673ffffffffffffffffffffffffffffffffffffffff16815260200190815260200160002060008473ffffffffffffffffffffffffffffffffffffffff1673ffffffffffffffffffffffffffffffffffffffff16815260200190815260200160002060006101000a81548160ff0219169083151502179055508173ffffffffffffffffffffffffffffffffffffffff168373ffffffffffffffffffffffffffffffffffffffff167f17307eab39ab6107e8899845ad3d59bd9653f200f220920489ca2b5937696c3183604051611d319190612bcd565b60405180910390a3505050565b611d49848484611698565b611d558484848461231c565b611d94576040517f08c379a0000000000000000000000000000000000000000000000000000000008152600401611d8b906140b5565b60405180910390fd5b50505050565b606060405180602001604052806000815250905090565b6060611dbc826114e9565b6000611dc6611d9a565b90506000815111611de65760405180602001604052806000815250611e11565b80611df0846124a3565b604051602001611e01929190613cff565b6040516020818303038152906040525b915050919050565b611e21611a24565b6bffffffffffffffffffffffff16816bffffffffffffffffffffffff161115611e7f576040517f08c379a0000000000000000000000000000000000000000000000000000000008152600401611e7690614147565b60405180910390fd5b600073ffffffffffffffffffffffffffffffffffffffff168273ffffffffffffffffffffffffffffffffffffffff1603611eee576040517f08c379a0000000000000000000000000000000000000000000000000000000008152600401611ee5906141b3565b60405180910390fd5b60405180604001604052808373ffffffffffffffffffffffffffffffffffffffff168152602001826bffffffffffffffffffffffff168152506008600085815260200190815260200160002060008201518160000160006101000a81548173ffffffffffffffffffffffffffffffffffffffff021916908373ffffffffffffffffffffffffffffffffffffffff16021790555060208201518160000160146101000a8154816bffffffffffffffffffffffff02191690836bffffffffffffffffffffffff160217905550905050505050565b60007f80ac58cd000000000000000000000000000000000000000000000000000000007bffffffffffffffffffffffffffffffffffffffffffffffffffffffff1916827bffffffffffffffffffffffffffffffffffffffffffffffffffffffff1916148061208b57507f5b5e139f000000000000000000000000000000000000000000000000000000007bffffffffffffffffffffffffffffffffffffffffffffffffffffffff1916827bffffffffffffffffffffffffffffffffffffffffffffffffffffffff1916145b8061209b575061209a82612571565b5b9050919050565b60008073ffffffffffffffffffffffffffffffffffffffff166120c483611a2e565b73ffffffffffffffffffffffffffffffffffffffff1614159050919050565b600181111561220357600073ffffffffffffffffffffffffffffffffffffffff168473ffffffffffffffffffffffffffffffffffffffff16146121775780600360008673ffffffffffffffffffffffffffffffffffffffff1673ffffffffffffffffffffffffffffffffffffffff168152602001908152602001600020600082825461216f91906141d3565b925050819055505b600073ffffffffffffffffffffffffffffffffffffffff168373ffffffffffffffffffffffffffffffffffffffff16146122025780600360008573ffffffffffffffffffffffffffffffffffffffff1673ffffffffffffffffffffffffffffffffffffffff16815260200190815260200160002060008282546121fa9190614207565b925050819055505b5b50505050565b50505050565b612218816125db565b60006006600083815260200190815260200160002080546122389061360c565b90501461225f5760066000828152602001908152602001600020600061225e9190612abc565b5b50565b60086000828152602001908152602001600020600080820160006101000a81549073ffffffffffffffffffffffffffffffffffffffff02191690556000820160146101000a8154906bffffffffffffffffffffffff0219169055505050565b6122cb8383612729565b6122d8600084848461231c565b612317576040517f08c379a000000000000000000000000000000000000000000000000000000000815260040161230e906140b5565b60405180910390fd5b505050565b600061233d8473ffffffffffffffffffffffffffffffffffffffff16612946565b15612496578373ffffffffffffffffffffffffffffffffffffffff1663150b7a02612366611534565b8786866040518563ffffffff1660e01b81526004016123889493929190614290565b6020604051808303816000875af19250505080156123c457506040513d601f19601f820116820180604052508101906123c191906142f1565b60015b612446573d80600081146123f4576040519150601f19603f3d011682016040523d82523d6000602084013e6123f9565b606091505b50600081510361243e576040517f08c379a0000000000000000000000000000000000000000000000000000000008152600401612435906140b5565b60405180910390fd5b805181602001fd5b63150b7a0260e01b7bffffffffffffffffffffffffffffffffffffffffffffffffffffffff1916817bffffffffffffffffffffffffffffffffffffffffffffffffffffffff19161491505061249b565b600190505b949350505050565b6060600060016124b284612969565b01905060008167ffffffffffffffff8111156124d1576124d0612ee2565b5b6040519080825280601f01601f1916602001820160405280156125035781602001600182028036833780820191505090505b509050600082602001820190505b600115612566578080600190039150507f3031323334353637383961626364656600000000000000000000000000000000600a86061a8153600a858161255a57612559613864565b5b04945060008503612511575b819350505050919050565b60007f01ffc9a7000000000000000000000000000000000000000000000000000000007bffffffffffffffffffffffffffffffffffffffffffffffffffffffff1916827bffffffffffffffffffffffffffffffffffffffffffffffffffffffff1916149050919050565b60006125e682610ace565b90506125f68160008460016120e3565b6125ff82610ace565b90506004600083815260200190815260200160002060006101000a81549073ffffffffffffffffffffffffffffffffffffffff02191690556001600360008373ffffffffffffffffffffffffffffffffffffffff1673ffffffffffffffffffffffffffffffffffffffff168152602001908152602001600020600082825403925050819055506002600083815260200190815260200160002060006101000a81549073ffffffffffffffffffffffffffffffffffffffff021916905581600073ffffffffffffffffffffffffffffffffffffffff168273ffffffffffffffffffffffffffffffffffffffff167fddf252ad1be2c89b69c2b068fc378daa952ba7f163c4a11628f55a4df523b3ef60405160405180910390a4612725816000846001612209565b5050565b600073ffffffffffffffffffffffffffffffffffffffff168273ffffffffffffffffffffffffffffffffffffffff1603612798576040517f08c379a000000000000000000000000000000000000000000000000000000000815260040161278f9061436a565b60405180910390fd5b6127a1816120a2565b156127e1576040517f08c379a00000000000000000000000000000000000000000000000000000000081526004016127d8906143d6565b60405180910390fd5b6127ef6000838360016120e3565b6127f8816120a2565b15612838576040517f08c379a000000000000000000000000000000000000000000000000000000000815260040161282f906143d6565b60405180910390fd5b6001600360008473ffffffffffffffffffffffffffffffffffffffff1673ffffffffffffffffffffffffffffffffffffffff16815260200190815260200160002060008282540192505081905550816002600083815260200190815260200160002060006101000a81548173ffffffffffffffffffffffffffffffffffffffff021916908373ffffffffffffffffffffffffffffffffffffffff160217905550808273ffffffffffffffffffffffffffffffffffffffff16600073ffffffffffffffffffffffffffffffffffffffff167fddf252ad1be2c89b69c2b068fc378daa952ba7f163c4a11628f55a4df523b3ef60405160405180910390a4612942600083836001612209565b5050565b6000808273ffffffffffffffffffffffffffffffffffffffff163b119050919050565b600080600090507a184f03e93ff9f4daa797ed6e38ed64bf6a1f01000000000000000083106129c7577a184f03e93ff9f4daa797ed6e38ed64bf6a1f01000000000000000083816129bd576129bc613864565b5b0492506040810190505b6d04ee2d6d415b85acef81000000008310612a04576d04ee2d6d415b85acef810000000083816129fa576129f9613864565b5b0492506020810190505b662386f26fc100008310612a3357662386f26fc100008381612a2957612a28613864565b5b0492506010810190505b6305f5e1008310612a5c576305f5e1008381612a5257612a51613864565b5b0492506008810190505b6127108310612a81576127108381612a7757612a76613864565b5b0492506004810190505b60648310612aa45760648381612a9a57612a99613864565b5b0492506002810190505b600a8310612ab3576001810190505b80915050919050565b508054612ac89061360c565b6000825580601f10612ada5750612af9565b601f016020900490600052602060002090810190612af89190612afc565b5b50565b5b80821115612b15576000816000905550600101612afd565b5090565b6000604051905090565b600080fd5b600080fd5b60007fffffffff0000000000000000000000000000000000000000000000000000000082169050919050565b612b6281612b2d565b8114612b6d57600080fd5b50565b600081359050612b7f81612b59565b92915050565b600060208284031215612b9b57612b9a612b23565b5b6000612ba984828501612b70565b91505092915050565b60008115159050919050565b612bc781612bb2565b82525050565b6000602082019050612be26000830184612bbe565b92915050565b600081519050919050565b600082825260208201905092915050565b60005b83811015612c22578082015181840152602081019050612c07565b60008484015250505050565b6000601f19601f8301169050919050565b6000612c4a82612be8565b612c548185612bf3565b9350612c64818560208601612c04565b612c6d81612c2e565b840191505092915050565b60006020820190508181036000830152612c928184612c3f565b905092915050565b6000819050919050565b612cad81612c9a565b8114612cb857600080fd5b50565b600081359050612cca81612ca4565b92915050565b600060208284031215612ce657612ce5612b23565b5b6000612cf484828501612cbb565b91505092915050565b600073ffffffffffffffffffffffffffffffffffffffff82169050919050565b6000612d2882612cfd565b9050919050565b612d3881612d1d565b82525050565b6000602082019050612d536000830184612d2f565b92915050565b612d6281612d1d565b8114612d6d57600080fd5b50565b600081359050612d7f81612d59565b92915050565b60008060408385031215612d9c57612d9b612b23565b5b6000612daa85828601612d70565b9250506020612dbb85828601612cbb565b9150509250929050565b612dce81612c9a565b82525050565b6000602082019050612de96000830184612dc5565b92915050565b600080600060608486031215612e0857612e07612b23565b5b6000612e1686828701612d70565b9350506020612e2786828701612d70565b9250506040612e3886828701612cbb565b9150509250925092565b60008060408385031215612e5957612e58612b23565b5b6000612e6785828601612cbb565b9250506020612e7885828601612cbb565b9150509250929050565b6000604082019050612e976000830185612d2f565b612ea46020830184612dc5565b9392505050565b600060208284031215612ec157612ec0612b23565b5b6000612ecf84828501612d70565b91505092915050565b600080fd5b600080fd5b7f4e487b7100000000000000000000000000000000000000000000000000000000600052604160045260246000fd5b612f1a82612c2e565b810181811067ffffffffffffffff82111715612f3957612f38612ee2565b5b80604052505050565b6000612f4c612b19565b9050612f588282612f11565b919050565b600067ffffffffffffffff821115612f7857612f77612ee2565b5b612f8182612c2e565b9050602081019050919050565b82818337600083830152505050565b6000612fb0612fab84612f5d565b612f42565b905082815260208101848484011115612fcc57612fcb612edd565b5b612fd7848285612f8e565b509392505050565b600082601f830112612ff457612ff3612ed8565b5b8135613004848260208601612f9d565b91505092915050565b6000806000806080858703121561302757613026612b23565b5b600061303587828801612d70565b945050602085013567ffffffffffffffff81111561305657613055612b28565b5b61306287828801612fdf565b935050604085013567ffffffffffffffff81111561308357613082612b28565b5b61308f87828801612fdf565b925050606085013567ffffffffffffffff8111156130b0576130af612b28565b5b6130bc87828801612fdf565b91505092959194509250565b6130d181612bb2565b81146130dc57600080fd5b50565b6000813590506130ee816130c8565b92915050565b6000806040838503121561310b5761310a612b23565b5b600061311985828601612d70565b925050602061312a858286016130df565b9150509250929050565b600067ffffffffffffffff82111561314f5761314e612ee2565b5b61315882612c2e565b9050602081019050919050565b600061317861317384613134565b612f42565b90508281526020810184848401111561319457613193612edd565b5b61319f848285612f8e565b509392505050565b600082601f8301126131bc576131bb612ed8565b5b81356131cc848260208601613165565b91505092915050565b600080600080608085870312156131ef576131ee612b23565b5b60006131fd87828801612d70565b945050602061320e87828801612d70565b935050604061321f87828801612cbb565b925050606085013567ffffffffffffffff8111156132405761323f612b28565b5b61324c878288016131a7565b91505092959194509250565b60006bffffffffffffffffffffffff82169050919050565b61327981613258565b82525050565b60006020820190506132946000830184613270565b92915050565b6132a381613258565b81146132ae57600080fd5b50565b6000813590506132c08161329a565b92915050565b60008060008060008060c087890312156132e3576132e2612b23565b5b60006132f189828a01612d70565b965050602087013567ffffffffffffffff81111561331257613311612b28565b5b61331e89828a01612fdf565b955050604061332f89828a01612d70565b945050606061334089828a016132b1565b935050608087013567ffffffffffffffff81111561336157613360612b28565b5b61336d89828a01612fdf565b92505060a087013567ffffffffffffffff81111561338e5761338d612b28565b5b61339a89828a01612fdf565b9150509295509295509295565b600081519050919050565b600082825260208201905092915050565b6000819050602082019050919050565b6133dc81612c9a565b82525050565b6133eb81612d1d565b82525050565b600082825260208201905092915050565b600061340d82612be8565b61341781856133f1565b9350613427818560208601612c04565b61343081612c2e565b840191505092915050565b600060e08301600083015161345360008601826133d3565b50602083015161346660208601826133e2565b50604083015161347960408601826133d3565b50606083015184820360608601526134918282613402565b915050608083015184820360808601526134ab8282613402565b91505060a083015184820360a08601526134c58282613402565b91505060c08301516134da60c08601826133d3565b508091505092915050565b60006134f1838361343b565b905092915050565b6000602082019050919050565b6000613511826133a7565b61351b81856133b2565b93508360208202850161352d856133c3565b8060005b85811015613569578484038952815161354a85826134e5565b9450613555836134f9565b925060208a01995050600181019050613531565b50829750879550505050505092915050565b600060208201905081810360008301526135958184613506565b905092915050565b600080604083850312156135b4576135b3612b23565b5b60006135c285828601612d70565b92505060206135d385828601612d70565b9150509250929050565b7f4e487b7100000000000000000000000000000000000000000000000000000000600052602260045260246000fd5b6000600282049050600182168061362457607f821691505b602082108103613637576136366135dd565b5b50919050565b7f4552433732313a20617070726f76616c20746f2063757272656e74206f776e6560008201527f7200000000000000000000000000000000000000000000000000000000000000602082015250565b6000613699602183612bf3565b91506136a48261363d565b604082019050919050565b600060208201905081810360008301526136c88161368c565b9050919050565b7f4552433732313a20617070726f76652063616c6c6572206973206e6f7420746f60008201527f6b656e206f776e6572206f7220617070726f76656420666f7220616c6c000000602082015250565b600061372b603d83612bf3565b9150613736826136cf565b604082019050919050565b6000602082019050818103600083015261375a8161371e565b9050919050565b7f4552433732313a2063616c6c6572206973206e6f7420746f6b656e206f776e6560008201527f72206f7220617070726f76656400000000000000000000000000000000000000602082015250565b60006137bd602d83612bf3565b91506137c882613761565b604082019050919050565b600060208201905081810360008301526137ec816137b0565b9050919050565b7f4e487b7100000000000000000000000000000000000000000000000000000000600052601160045260246000fd5b600061382d82612c9a565b915061383883612c9a565b925082820261384681612c9a565b9150828204841483151761385d5761385c6137f3565b5b5092915050565b7f4e487b7100000000000000000000000000000000000000000000000000000000600052601260045260246000fd5b600061389e82612c9a565b91506138a983612c9a565b9250826138b9576138b8613864565b5b828204905092915050565b7f4552433732313a20696e76616c696420746f6b656e2049440000000000000000600082015250565b60006138fa601883612bf3565b9150613905826138c4565b602082019050919050565b60006020820190508181036000830152613929816138ed565b9050919050565b7f4552433732313a2061646472657373207a65726f206973206e6f74206120766160008201527f6c6964206f776e65720000000000000000000000000000000000000000000000602082015250565b600061398c602983612bf3565b915061399782613930565b604082019050919050565b600060208201905081810360008301526139bb8161397f565b9050919050565b600081905092915050565b60006139d882612be8565b6139e281856139c2565b93506139f2818560208601612c04565b80840191505092915050565b6000613a0a82846139cd565b915081905092915050565b7f54686973204e465420697320616c7265616479206d696e746564210000000000600082015250565b6000613a4b601b83612bf3565b9150613a5682613a15565b602082019050919050565b60006020820190508181036000830152613a7a81613a3e565b9050919050565b60008190508160005260206000209050919050565b60006020601f8301049050919050565b600082821b905092915050565b600060088302613ae37fffffffffffffffffffffffffffffffffffffffffffffffffffffffffffffffff82613aa6565b613aed8683613aa6565b95508019841693508086168417925050509392505050565b6000819050919050565b6000613b2a613b25613b2084612c9a565b613b05565b612c9a565b9050919050565b6000819050919050565b613b4483613b0f565b613b58613b5082613b31565b848454613ab3565b825550505050565b600090565b613b6d613b60565b613b78818484613b3b565b505050565b5b81811015613b9c57613b91600082613b65565b600181019050613b7e565b5050565b601f821115613be157613bb281613a81565b613bbb84613a96565b81016020851015613bca578190505b613bde613bd685613a96565b830182613b7d565b50505b505050565b600082821c905092915050565b6000613c0460001984600802613be6565b1980831691505092915050565b6000613c1d8383613bf3565b9150826002028217905092915050565b613c3682612be8565b67ffffffffffffffff811115613c4f57613c4e612ee2565b5b613c59825461360c565b613c64828285613ba0565b600060209050601f831160018114613c975760008415613c85578287015190505b613c8f8582613c11565b865550613cf7565b601f198416613ca586613a81565b60005b82811015613ccd57848901518255600182019150602085019450602081019050613ca8565b86831015613cea5784890151613ce6601f891682613bf3565b8355505b6001600288020188555050505b505050505050565b6000613d0b82856139cd565b9150613d1782846139cd565b91508190509392505050565b7f4f776e61626c653a206e6577206f776e657220697320746865207a65726f206160008201527f6464726573730000000000000000000000000000000000000000000000000000602082015250565b6000613d7f602683612bf3565b9150613d8a82613d23565b604082019050919050565b60006020820190508181036000830152613dae81613d72565b9050919050565b7f4552433732313a207472616e736665722066726f6d20696e636f72726563742060008201527f6f776e6572000000000000000000000000000000000000000000000000000000602082015250565b6000613e11602583612bf3565b9150613e1c82613db5565b604082019050919050565b60006020820190508181036000830152613e4081613e04565b9050919050565b7f4552433732313a207472616e7366657220746f20746865207a65726f2061646460008201527f7265737300000000000000000000000000000000000000000000000000000000602082015250565b6000613ea3602483612bf3565b9150613eae82613e47565b604082019050919050565b60006020820190508181036000830152613ed281613e96565b9050919050565b7f4f776e61626c653a2063616c6c6572206973206e6f7420746865206f776e6572600082015250565b6000613f0f602083612bf3565b9150613f1a82613ed9565b602082019050919050565b60006020820190508181036000830152613f3e81613f02565b9050919050565b7f45524337323155524953746f726167653a2055524920736574206f66206e6f6e60008201527f6578697374656e7420746f6b656e000000000000000000000000000000000000602082015250565b6000613fa1602e83612bf3565b9150613fac82613f45565b604082019050919050565b60006020820190508181036000830152613fd081613f94565b9050919050565b7f4552433732313a20617070726f766520746f2063616c6c657200000000000000600082015250565b600061400d601983612bf3565b915061401882613fd7565b602082019050919050565b6000602082019050818103600083015261403c81614000565b9050919050565b7f4552433732313a207472616e7366657220746f206e6f6e20455243373231526560008201527f63656976657220696d706c656d656e7465720000000000000000000000000000602082015250565b600061409f603283612bf3565b91506140aa82614043565b604082019050919050565b600060208201905081810360008301526140ce81614092565b9050919050565b7f455243323938313a20726f79616c7479206665652077696c6c2065786365656460008201527f2073616c65507269636500000000000000000000000000000000000000000000602082015250565b6000614131602a83612bf3565b915061413c826140d5565b604082019050919050565b6000602082019050818103600083015261416081614124565b9050919050565b7f455243323938313a20496e76616c696420706172616d65746572730000000000600082015250565b600061419d601b83612bf3565b91506141a882614167565b602082019050919050565b600060208201905081810360008301526141cc81614190565b9050919050565b60006141de82612c9a565b91506141e983612c9a565b9250828203905081811115614201576142006137f3565b5b92915050565b600061421282612c9a565b915061421d83612c9a565b9250828201905080821115614235576142346137f3565b5b92915050565b600081519050919050565b600082825260208201905092915050565b60006142628261423b565b61426c8185614246565b935061427c818560208601612c04565b61428581612c2e565b840191505092915050565b60006080820190506142a56000830187612d2f565b6142b26020830186612d2f565b6142bf6040830185612dc5565b81810360608301526142d18184614257565b905095945050505050565b6000815190506142eb81612b59565b92915050565b60006020828403121561430757614306612b23565b5b6000614315848285016142dc565b91505092915050565b7f4552433732313a206d696e7420746f20746865207a65726f2061646472657373600082015250565b6000614354602083612bf3565b915061435f8261431e565b602082019050919050565b6000602082019050818103600083015261438381614347565b9050919050565b7f4552433732313a20746f6b656e20616c7265616479206d696e74656400000000600082015250565b60006143c0601c83612bf3565b91506143cb8261438a565b602082019050919050565b600060208201905081810360008301526143ef816143b3565b905091905056fea2646970667358221220981e5affe859537f3c537c771ad3294403c70f6569b3a641497e5a507c3b14ee64736f6c63430008120033",
  "linkReferences": {},
  "deployedLinkReferences": {}
}